{
  "address": "0x5101f0b54e7082fD450bC3268D906508b4D81429",
  "abi": [
    {
      "anonymous": false,
      "inputs": [
        {
          "indexed": false,
          "internalType": "uint8",
          "name": "version",
          "type": "uint8"
        }
      ],
      "name": "Initialized",
      "type": "event"
    },
    {
      "anonymous": false,
      "inputs": [
        {
          "indexed": true,
          "internalType": "address",
          "name": "previousOwner",
          "type": "address"
        },
        {
          "indexed": true,
          "internalType": "address",
          "name": "newOwner",
          "type": "address"
        }
      ],
      "name": "OwnershipTransferred",
      "type": "event"
    },
    {
      "inputs": [],
      "name": "WEEK",
      "outputs": [
        {
          "internalType": "uint256",
          "name": "",
          "type": "uint256"
        }
      ],
      "stateMutability": "view",
      "type": "function"
    },
    {
      "inputs": [
        {
          "internalType": "address",
          "name": "account",
          "type": "address"
        }
      ],
      "name": "claimable",
      "outputs": [
        {
          "internalType": "uint256",
          "name": "",
          "type": "uint256"
        }
      ],
      "stateMutability": "view",
      "type": "function"
    },
    {
      "inputs": [
        {
          "internalType": "address",
          "name": "account",
          "type": "address"
        }
      ],
      "name": "find_timestamp_user_epoch",
      "outputs": [
        {
          "internalType": "uint256",
          "name": "",
          "type": "uint256"
        }
      ],
      "stateMutability": "view",
      "type": "function"
    },
    {
      "inputs": [
        {
          "internalType": "address",
          "name": "_ve",
          "type": "address"
        },
        {
          "internalType": "address",
          "name": "_feeDistributor",
          "type": "address"
        }
      ],
      "name": "initialize",
      "outputs": [],
      "stateMutability": "nonpayable",
      "type": "function"
    },
    {
      "inputs": [],
      "name": "owner",
      "outputs": [
        {
          "internalType": "address",
          "name": "",
          "type": "address"
        }
      ],
      "stateMutability": "view",
      "type": "function"
    },
    {
      "inputs": [],
      "name": "renounceOwnership",
      "outputs": [],
      "stateMutability": "nonpayable",
      "type": "function"
    },
    {
      "inputs": [
        {
          "internalType": "address",
          "name": "_feeDistributor",
          "type": "address"
        }
      ],
      "name": "setFeeDistributor",
      "outputs": [],
      "stateMutability": "nonpayable",
      "type": "function"
    },
    {
      "inputs": [
        {
          "internalType": "address",
          "name": "_ve",
          "type": "address"
        }
      ],
      "name": "setVE",
      "outputs": [],
      "stateMutability": "nonpayable",
      "type": "function"
    },
    {
      "inputs": [
        {
          "internalType": "address",
          "name": "newOwner",
          "type": "address"
        }
      ],
      "name": "transferOwnership",
      "outputs": [],
      "stateMutability": "nonpayable",
      "type": "function"
    }
  ],
  "transactionHash": "0x10538450eb69fa8ca326b4ba02a243749bdb0ce3363dde860facf262904af70f",
  "args": [],
  "numDeployments": 1,
  "solcInputHash": "4983e3a3527ddce13551c47e71c4ac04",
  "bytecode": "0x608060405234801561001057600080fd5b5061118e806100206000396000f3fe608060405234801561001057600080fd5b50600436106100a35760003560e01c806383be0d2711610076578063ccfc2e8d1161005b578063ccfc2e8d1461012c578063f2fde38b1461013f578063f4359ce51461015257600080fd5b806383be0d27146100fe5780638da5cb5b1461011157600080fd5b8063402914f5146100a8578063485cc955146100ce57806369acb1e4146100e3578063715018a6146100f6575b600080fd5b6100bb6100b6366004610fd6565b61015c565b6040519081526020015b60405180910390f35b6100e16100dc366004610ff8565b610875565b005b6100bb6100f1366004610fd6565b610929565b6100e1610b28565b6100e161010c366004610fd6565b610b93565b6033546040516001600160a01b0390911681526020016100c5565b6100e161013a366004610fd6565b610c1c565b6100e161014d366004610fd6565b610ca5565b6100bb62093a8081565b600080606560009054906101000a90046001600160a01b03166001600160a01b0316637f58e8f86040518163ffffffff1660e01b8152600401602060405180830381865afa1580156101b2573d6000803e3d6000fd5b505050506040513d601f19601f820116820180604052508101906101d6919061102b565b6066546040517f010ae7570000000000000000000000000000000000000000000000000000000081526001600160a01b0386811660048301529293506000928392839291169063010ae75790602401602060405180830381865afa158015610242573d6000803e3d6000fd5b505050506040513d601f19601f82011682018060405250810190610266919061102b565b90508060000361027c5750600095945050505050565b6065546040517f2a2a314b0000000000000000000000000000000000000000000000000000000081526001600160a01b0388811660048301526000921690632a2a314b90602401602060405180830381865afa1580156102e0573d6000803e3d6000fd5b505050506040513d601f19601f82011682018060405250810190610304919061102b565b90508060000361031e5761031787610929565b93506103a8565b6065546040517fd5d46e880000000000000000000000000000000000000000000000000000000081526001600160a01b0389811660048301529091169063d5d46e8890602401602060405180830381865afa158015610381573d6000803e3d6000fd5b505050506040513d601f19601f820116820180604052508101906103a5919061102b565b93505b836000036103b557600193505b6066546040516328d09d4760e01b81526001600160a01b0389811660048301526024820187905260009216906328d09d4790604401608060405180830381865afa158015610407573d6000803e3d6000fd5b505050506040513d601f19601f8201168201806040525081019061042b9190611044565b9050816000036104705762093a8080600162093a80846040015161044f91906110ce565b61045991906110e6565b61046391906110fd565b61046d919061111f565b91505b85821061048557506000979650505050505050565b606560009054906101000a90046001600160a01b03166001600160a01b031663834ee4176040518163ffffffff1660e01b8152600401602060405180830381865afa1580156104d8573d6000803e3d6000fd5b505050506040513d601f19601f820116820180604052508101906104fc919061102b565b82101561057d57606560009054906101000a90046001600160a01b03166001600160a01b031663834ee4176040518163ffffffff1660e01b8152600401602060405180830381865afa158015610556573d6000803e3d6000fd5b505050506040513d601f19601f8201168201806040525081019061057a919061102b565b91505b6105a86040518060800160405280600081526020016000815260200160008152602001600081525090565b60005b6032811015610867578784101561086757826040015184101580156105d05750848711155b156106a557866105df8161113e565b845184526020808601519085015260408086015190850152606080860151908501529750508487111561062957600080845260208401819052604084018190526060840152610855565b6066546040516328d09d4760e01b81526001600160a01b038c81166004830152602482018a9052909116906328d09d4790604401608060405180830381865afa15801561067a573d6000803e3d6000fd5b505050506040513d601f19601f8201168201806040525081019061069e9190611044565b9250610855565b60008260400151856106b791906110e6565b905060008360200151826106cb919061111f565b845110156106da5760006106f5565b60208401516106e9908361111f565b84516106f591906110e6565b90508015801561070457508689115b15610710575050610867565b8015610843576065546040517fd4dafba8000000000000000000000000000000000000000000000000000000008152600481018890526001600160a01b039091169063d4dafba890602401602060405180830381865afa158015610778573d6000803e3d6000fd5b505050506040513d601f19601f8201168201806040525081019061079c919061102b565b6065546040517fedf59997000000000000000000000000000000000000000000000000000000008152600481018990526001600160a01b039091169063edf5999790602401602060405180830381865afa1580156107fe573d6000803e3d6000fd5b505050506040513d601f19601f82011682018060405250810190610822919061102b565b61082c908361111f565b61083691906110fd565b61084090896110ce565b97505b61085062093a80876110ce565b955050505b8061085f8161113e565b9150506105ab565b509398975050505050505050565b60006108816001610d87565b90508015610899576000805461ff0019166101001790555b6108a1610ede565b606680546001600160a01b0380861673ffffffffffffffffffffffffffffffffffffffff199283161790925560658054928516929091169190911790558015610924576000805461ff0019169055604051600181527f7f26b83ff96e1f2b6a682f133852f6798a09c465da95921460cefb38474024989060200160405180910390a15b505050565b6066546040517f010ae7570000000000000000000000000000000000000000000000000000000081526001600160a01b038381166004830152600092839283929091169063010ae75790602401602060405180830381865afa158015610993573d6000803e3d6000fd5b505050506040513d601f19601f820116820180604052508101906109b7919061102b565b90506000606560009054906101000a90046001600160a01b03166001600160a01b031663834ee4176040518163ffffffff1660e01b8152600401602060405180830381865afa158015610a0e573d6000803e3d6000fd5b505050506040513d601f19601f82011682018060405250810190610a32919061102b565b905060005b6080811015610b1e5782841015610b1e5760006002610a5685876110ce565b610a619060026110ce565b610a6b91906110fd565b6066546040516328d09d4760e01b81526001600160a01b038a8116600483015260248201849052929350600092909116906328d09d4790604401608060405180830381865afa158015610ac2573d6000803e3d6000fd5b505050506040513d601f19601f82011682018060405250810190610ae69190611044565b905083816040015111610afb57819550610b09565b610b066001836110e6565b94505b50508080610b169061113e565b915050610a37565b5091949350505050565b6033546001600160a01b03163314610b875760405162461bcd60e51b815260206004820181905260248201527f4f776e61626c653a2063616c6c6572206973206e6f7420746865206f776e657260448201526064015b60405180910390fd5b610b916000610f60565b565b6033546001600160a01b03163314610bed5760405162461bcd60e51b815260206004820181905260248201527f4f776e61626c653a2063616c6c6572206973206e6f7420746865206f776e65726044820152606401610b7e565b6066805473ffffffffffffffffffffffffffffffffffffffff19166001600160a01b0392909216919091179055565b6033546001600160a01b03163314610c765760405162461bcd60e51b815260206004820181905260248201527f4f776e61626c653a2063616c6c6572206973206e6f7420746865206f776e65726044820152606401610b7e565b6065805473ffffffffffffffffffffffffffffffffffffffff19166001600160a01b0392909216919091179055565b6033546001600160a01b03163314610cff5760405162461bcd60e51b815260206004820181905260248201527f4f776e61626c653a2063616c6c6572206973206e6f7420746865206f776e65726044820152606401610b7e565b6001600160a01b038116610d7b5760405162461bcd60e51b815260206004820152602660248201527f4f776e61626c653a206e6577206f776e657220697320746865207a65726f206160448201527f64647265737300000000000000000000000000000000000000000000000000006064820152608401610b7e565b610d8481610f60565b50565b60008054610100900460ff1615610e24578160ff166001148015610daa5750303b155b610e1c5760405162461bcd60e51b815260206004820152602e60248201527f496e697469616c697a61626c653a20636f6e747261637420697320616c72656160448201527f647920696e697469616c697a65640000000000000000000000000000000000006064820152608401610b7e565b506000919050565b60005460ff808416911610610ea15760405162461bcd60e51b815260206004820152602e60248201527f496e697469616c697a61626c653a20636f6e747261637420697320616c72656160448201527f647920696e697469616c697a65640000000000000000000000000000000000006064820152608401610b7e565b50600080547fffffffffffffffffffffffffffffffffffffffffffffffffffffffffffffff001660ff92909216919091179055600190565b919050565b600054610100900460ff16610f5b5760405162461bcd60e51b815260206004820152602b60248201527f496e697469616c697a61626c653a20636f6e7472616374206973206e6f74206960448201527f6e697469616c697a696e670000000000000000000000000000000000000000006064820152608401610b7e565b610b91335b603380546001600160a01b0383811673ffffffffffffffffffffffffffffffffffffffff19831681179093556040519116919082907f8be0079c531659141344cd1fd0a4f28419497f9722a3daafe3b4186f6b6457e090600090a35050565b80356001600160a01b0381168114610ed957600080fd5b600060208284031215610fe857600080fd5b610ff182610fbf565b9392505050565b6000806040838503121561100b57600080fd5b61101483610fbf565b915061102260208401610fbf565b90509250929050565b60006020828403121561103d57600080fd5b5051919050565b60006080828403121561105657600080fd5b6040516080810181811067ffffffffffffffff8211171561108757634e487b7160e01b600052604160045260246000fd5b8060405250825181526020830151602082015260408301516040820152606083015160608201528091505092915050565b634e487b7160e01b600052601160045260246000fd5b600082198211156110e1576110e16110b8565b500190565b6000828210156110f8576110f86110b8565b500390565b60008261111a57634e487b7160e01b600052601260045260246000fd5b500490565b6000816000190483118215151615611139576111396110b8565b500290565b60006000198203611151576111516110b8565b506001019056fea2646970667358221220c80791da7e6821ceea9c632500340642a4d04d315d67dc9b1b7b6befc0e4ec1164736f6c634300080d0033",
  "devdoc": {
    "kind": "dev",
    "methods": {
      "find_timestamp_user_epoch(address)": {
        "details": "Finds a epoch value for `user` by doing the initial binary search",
        "params": {
          "account": "- The address you're going to get the epoch value for"
        }
      },
      "owner()": {
        "details": "Returns the address of the current owner."
      },
      "renounceOwnership()": {
        "details": "Leaves the contract without owner. It will not be possible to call `onlyOwner` functions anymore. Can only be called by the current owner. NOTE: Renouncing ownership will leave the contract without an owner, thereby removing any functionality that is only available to the owner."
      },
      "transferOwnership(address)": {
        "details": "Transfers ownership of the contract to a new account (`newOwner`). Can only be called by the current owner."
      }
    },
    "stateVariables": {
      "feeDistributor": {
        "details": "The fee distributor contract"
      },
      "ve": {
        "details": "The voting escrow contract"
      }
    },
    "version": 1
  },
  "userdoc": {
    "kind": "user",
    "methods": {},
    "version": 1
  },
  "storageLayout": {
    "storage": [
      {
        "astId": 130,
        "contract": "contracts/FeeDistributorAgent.sol:FeeDistributorAgent",
        "label": "_initialized",
        "offset": 0,
        "slot": "0",
        "type": "t_uint8"
      },
      {
        "astId": 133,
        "contract": "contracts/FeeDistributorAgent.sol:FeeDistributorAgent",
        "label": "_initializing",
        "offset": 1,
        "slot": "0",
        "type": "t_bool"
      },
      {
        "astId": 549,
        "contract": "contracts/FeeDistributorAgent.sol:FeeDistributorAgent",
        "label": "__gap",
        "offset": 0,
        "slot": "1",
        "type": "t_array(t_uint256)50_storage"
      },
      {
        "astId": 10,
        "contract": "contracts/FeeDistributorAgent.sol:FeeDistributorAgent",
        "label": "_owner",
        "offset": 0,
        "slot": "51",
        "type": "t_address"
      },
      {
        "astId": 122,
        "contract": "contracts/FeeDistributorAgent.sol:FeeDistributorAgent",
        "label": "__gap",
        "offset": 0,
        "slot": "52",
        "type": "t_array(t_uint256)49_storage"
      },
      {
        "astId": 570,
        "contract": "contracts/FeeDistributorAgent.sol:FeeDistributorAgent",
        "label": "feeDistributor",
        "offset": 0,
        "slot": "101",
        "type": "t_contract(IFeeDistributor)1048"
      },
      {
        "astId": 574,
        "contract": "contracts/FeeDistributorAgent.sol:FeeDistributorAgent",
        "label": "ve",
        "offset": 0,
        "slot": "102",
        "type": "t_contract(IVotingEscrow)1093"
      }
    ],
    "types": {
      "t_address": {
        "encoding": "inplace",
        "label": "address",
        "numberOfBytes": "20"
      },
      "t_array(t_uint256)49_storage": {
        "base": "t_uint256",
        "encoding": "inplace",
        "label": "uint256[49]",
        "numberOfBytes": "1568"
      },
      "t_array(t_uint256)50_storage": {
        "base": "t_uint256",
        "encoding": "inplace",
        "label": "uint256[50]",
        "numberOfBytes": "1600"
      },
      "t_bool": {
        "encoding": "inplace",
        "label": "bool",
        "numberOfBytes": "1"
      },
      "t_contract(IFeeDistributor)1048": {
        "encoding": "inplace",
        "label": "contract IFeeDistributor",
        "numberOfBytes": "20"
      },
      "t_contract(IVotingEscrow)1093": {
        "encoding": "inplace",
        "label": "contract IVotingEscrow",
        "numberOfBytes": "20"
      },
      "t_uint256": {
        "encoding": "inplace",
        "label": "uint256",
        "numberOfBytes": "32"
      },
      "t_uint8": {
        "encoding": "inplace",
        "label": "uint8",
        "numberOfBytes": "1"
      }
    }
  }
}