{
  "address": "0xbdBa5cc4b47D3f4006ac20326809bE2e886e03dF",
  "abi": [
    {
      "anonymous": false,
      "inputs": [
        {
          "indexed": false,
          "internalType": "uint8",
          "name": "version",
          "type": "uint8"
        }
      ],
      "name": "Initialized",
      "type": "event"
    },
    {
      "anonymous": false,
      "inputs": [
        {
          "indexed": true,
          "internalType": "address",
          "name": "previousOwner",
          "type": "address"
        },
        {
          "indexed": true,
          "internalType": "address",
          "name": "newOwner",
          "type": "address"
        }
      ],
      "name": "OwnershipTransferred",
      "type": "event"
    },
    {
      "inputs": [],
      "name": "WEEK",
      "outputs": [
        {
          "internalType": "uint256",
          "name": "",
          "type": "uint256"
        }
      ],
      "stateMutability": "view",
      "type": "function"
    },
    {
      "inputs": [
        {
          "internalType": "address",
          "name": "account",
          "type": "address"
        }
      ],
      "name": "claimable",
      "outputs": [
        {
          "internalType": "uint256",
          "name": "",
          "type": "uint256"
        }
      ],
      "stateMutability": "view",
      "type": "function"
    },
    {
      "inputs": [
        {
          "internalType": "address",
          "name": "account",
          "type": "address"
        }
      ],
      "name": "find_timestamp_user_epoch",
      "outputs": [
        {
          "internalType": "uint256",
          "name": "",
          "type": "uint256"
        }
      ],
      "stateMutability": "view",
      "type": "function"
    },
    {
      "inputs": [
        {
          "internalType": "address",
          "name": "_ve",
          "type": "address"
        },
        {
          "internalType": "address",
          "name": "_feeDistributor",
          "type": "address"
        }
      ],
      "name": "initialize",
      "outputs": [],
      "stateMutability": "nonpayable",
      "type": "function"
    },
    {
      "inputs": [],
      "name": "owner",
      "outputs": [
        {
          "internalType": "address",
          "name": "",
          "type": "address"
        }
      ],
      "stateMutability": "view",
      "type": "function"
    },
    {
      "inputs": [],
      "name": "renounceOwnership",
      "outputs": [],
      "stateMutability": "nonpayable",
      "type": "function"
    },
    {
      "inputs": [
        {
          "internalType": "address",
          "name": "_feeDistributor",
          "type": "address"
        }
      ],
      "name": "setFeeDistributor",
      "outputs": [],
      "stateMutability": "nonpayable",
      "type": "function"
    },
    {
      "inputs": [
        {
          "internalType": "address",
          "name": "_ve",
          "type": "address"
        }
      ],
      "name": "setVE",
      "outputs": [],
      "stateMutability": "nonpayable",
      "type": "function"
    },
    {
      "inputs": [
        {
          "internalType": "address",
          "name": "newOwner",
          "type": "address"
        }
      ],
      "name": "transferOwnership",
      "outputs": [],
      "stateMutability": "nonpayable",
      "type": "function"
    }
  ],
  "transactionHash": "0xa495f5f23e7d8452fdec227a5f7a0c00422c5757e490297bc0f356f25f8bd084",
  "args": [],
  "numDeployments": 2,
  "solcInputHash": "9283fe2f31b22bdd13f0d52152fc8b32",
  "bytecode": "0x608060405234801561001057600080fd5b506111a7806100206000396000f3fe608060405234801561001057600080fd5b50600436106100a35760003560e01c806383be0d2711610076578063ccfc2e8d1161005b578063ccfc2e8d1461012c578063f2fde38b1461013f578063f4359ce51461015257600080fd5b806383be0d27146100fe5780638da5cb5b1461011157600080fd5b8063402914f5146100a8578063485cc955146100ce57806369acb1e4146100e3578063715018a6146100f6575b600080fd5b6100bb6100b6366004610fef565b61015c565b6040519081526020015b60405180910390f35b6100e16100dc366004611011565b61088e565b005b6100bb6100f1366004610fef565b610942565b6100e1610b41565b6100e161010c366004610fef565b610bac565b6033546040516001600160a01b0390911681526020016100c5565b6100e161013a366004610fef565b610c35565b6100e161014d366004610fef565b610cbe565b6100bb62093a8081565b60008062093a8080606560009054906101000a90046001600160a01b03166001600160a01b0316637f58e8f86040518163ffffffff1660e01b8152600401602060405180830381865afa1580156101b7573d6000803e3d6000fd5b505050506040513d601f19601f820116820180604052508101906101db9190611044565b6101e59190611073565b6101ef9190611095565b6066546040517f010ae7570000000000000000000000000000000000000000000000000000000081526001600160a01b0386811660048301529293506000928392839291169063010ae75790602401602060405180830381865afa15801561025b573d6000803e3d6000fd5b505050506040513d601f19601f8201168201806040525081019061027f9190611044565b9050806000036102955750600095945050505050565b6065546040517f2a2a314b0000000000000000000000000000000000000000000000000000000081526001600160a01b0388811660048301526000921690632a2a314b90602401602060405180830381865afa1580156102f9573d6000803e3d6000fd5b505050506040513d601f19601f8201168201806040525081019061031d9190611044565b9050806000036103375761033087610942565b93506103c1565b6065546040517fd5d46e880000000000000000000000000000000000000000000000000000000081526001600160a01b0389811660048301529091169063d5d46e8890602401602060405180830381865afa15801561039a573d6000803e3d6000fd5b505050506040513d601f19601f820116820180604052508101906103be9190611044565b93505b836000036103ce57600193505b6066546040516328d09d4760e01b81526001600160a01b0389811660048301526024820187905260009216906328d09d4790604401608060405180830381865afa158015610420573d6000803e3d6000fd5b505050506040513d601f19601f8201168201806040525081019061044491906110b4565b9050816000036104895762093a8080600162093a8084604001516104689190611128565b6104729190611140565b61047c9190611073565b6104869190611095565b91505b85821061049e57506000979650505050505050565b606560009054906101000a90046001600160a01b03166001600160a01b031663834ee4176040518163ffffffff1660e01b8152600401602060405180830381865afa1580156104f1573d6000803e3d6000fd5b505050506040513d601f19601f820116820180604052508101906105159190611044565b82101561059657606560009054906101000a90046001600160a01b03166001600160a01b031663834ee4176040518163ffffffff1660e01b8152600401602060405180830381865afa15801561056f573d6000803e3d6000fd5b505050506040513d601f19601f820116820180604052508101906105939190611044565b91505b6105c16040518060800160405280600081526020016000815260200160008152602001600081525090565b60005b6032811015610880578784101561088057826040015184101580156105e95750848711155b156106be57866105f881611157565b84518452602080860151908501526040808601519085015260608086015190850152975050848711156106425760008084526020840181905260408401819052606084015261086e565b6066546040516328d09d4760e01b81526001600160a01b038c81166004830152602482018a9052909116906328d09d4790604401608060405180830381865afa158015610693573d6000803e3d6000fd5b505050506040513d601f19601f820116820180604052508101906106b791906110b4565b925061086e565b60008260400151856106d09190611140565b905060008360200151826106e49190611095565b845110156106f357600061070e565b60208401516107029083611095565b845161070e9190611140565b90508015801561071d57508689115b15610729575050610880565b801561085c576065546040517fd4dafba8000000000000000000000000000000000000000000000000000000008152600481018890526001600160a01b039091169063d4dafba890602401602060405180830381865afa158015610791573d6000803e3d6000fd5b505050506040513d601f19601f820116820180604052508101906107b59190611044565b6065546040517fedf59997000000000000000000000000000000000000000000000000000000008152600481018990526001600160a01b039091169063edf5999790602401602060405180830381865afa158015610817573d6000803e3d6000fd5b505050506040513d601f19601f8201168201806040525081019061083b9190611044565b6108459083611095565b61084f9190611073565b6108599089611128565b97505b61086962093a8087611128565b955050505b8061087881611157565b9150506105c4565b509398975050505050505050565b600061089a6001610da0565b905080156108b2576000805461ff0019166101001790555b6108ba610ef7565b606680546001600160a01b0380861673ffffffffffffffffffffffffffffffffffffffff19928316179092556065805492851692909116919091179055801561093d576000805461ff0019169055604051600181527f7f26b83ff96e1f2b6a682f133852f6798a09c465da95921460cefb38474024989060200160405180910390a15b505050565b6066546040517f010ae7570000000000000000000000000000000000000000000000000000000081526001600160a01b038381166004830152600092839283929091169063010ae75790602401602060405180830381865afa1580156109ac573d6000803e3d6000fd5b505050506040513d601f19601f820116820180604052508101906109d09190611044565b90506000606560009054906101000a90046001600160a01b03166001600160a01b031663834ee4176040518163ffffffff1660e01b8152600401602060405180830381865afa158015610a27573d6000803e3d6000fd5b505050506040513d601f19601f82011682018060405250810190610a4b9190611044565b905060005b6080811015610b375782841015610b375760006002610a6f8587611128565b610a7a906002611128565b610a849190611073565b6066546040516328d09d4760e01b81526001600160a01b038a8116600483015260248201849052929350600092909116906328d09d4790604401608060405180830381865afa158015610adb573d6000803e3d6000fd5b505050506040513d601f19601f82011682018060405250810190610aff91906110b4565b905083816040015111610b1457819550610b22565b610b1f600183611140565b94505b50508080610b2f90611157565b915050610a50565b5091949350505050565b6033546001600160a01b03163314610ba05760405162461bcd60e51b815260206004820181905260248201527f4f776e61626c653a2063616c6c6572206973206e6f7420746865206f776e657260448201526064015b60405180910390fd5b610baa6000610f79565b565b6033546001600160a01b03163314610c065760405162461bcd60e51b815260206004820181905260248201527f4f776e61626c653a2063616c6c6572206973206e6f7420746865206f776e65726044820152606401610b97565b6066805473ffffffffffffffffffffffffffffffffffffffff19166001600160a01b0392909216919091179055565b6033546001600160a01b03163314610c8f5760405162461bcd60e51b815260206004820181905260248201527f4f776e61626c653a2063616c6c6572206973206e6f7420746865206f776e65726044820152606401610b97565b6065805473ffffffffffffffffffffffffffffffffffffffff19166001600160a01b0392909216919091179055565b6033546001600160a01b03163314610d185760405162461bcd60e51b815260206004820181905260248201527f4f776e61626c653a2063616c6c6572206973206e6f7420746865206f776e65726044820152606401610b97565b6001600160a01b038116610d945760405162461bcd60e51b815260206004820152602660248201527f4f776e61626c653a206e6577206f776e657220697320746865207a65726f206160448201527f64647265737300000000000000000000000000000000000000000000000000006064820152608401610b97565b610d9d81610f79565b50565b60008054610100900460ff1615610e3d578160ff166001148015610dc35750303b155b610e355760405162461bcd60e51b815260206004820152602e60248201527f496e697469616c697a61626c653a20636f6e747261637420697320616c72656160448201527f647920696e697469616c697a65640000000000000000000000000000000000006064820152608401610b97565b506000919050565b60005460ff808416911610610eba5760405162461bcd60e51b815260206004820152602e60248201527f496e697469616c697a61626c653a20636f6e747261637420697320616c72656160448201527f647920696e697469616c697a65640000000000000000000000000000000000006064820152608401610b97565b50600080547fffffffffffffffffffffffffffffffffffffffffffffffffffffffffffffff001660ff92909216919091179055600190565b919050565b600054610100900460ff16610f745760405162461bcd60e51b815260206004820152602b60248201527f496e697469616c697a61626c653a20636f6e7472616374206973206e6f74206960448201527f6e697469616c697a696e670000000000000000000000000000000000000000006064820152608401610b97565b610baa335b603380546001600160a01b0383811673ffffffffffffffffffffffffffffffffffffffff19831681179093556040519116919082907f8be0079c531659141344cd1fd0a4f28419497f9722a3daafe3b4186f6b6457e090600090a35050565b80356001600160a01b0381168114610ef257600080fd5b60006020828403121561100157600080fd5b61100a82610fd8565b9392505050565b6000806040838503121561102457600080fd5b61102d83610fd8565b915061103b60208401610fd8565b90509250929050565b60006020828403121561105657600080fd5b5051919050565b634e487b7160e01b600052601160045260246000fd5b60008261109057634e487b7160e01b600052601260045260246000fd5b500490565b60008160001904831182151516156110af576110af61105d565b500290565b6000608082840312156110c657600080fd5b6040516080810181811067ffffffffffffffff821117156110f757634e487b7160e01b600052604160045260246000fd5b8060405250825181526020830151602082015260408301516040820152606083015160608201528091505092915050565b6000821982111561113b5761113b61105d565b500190565b6000828210156111525761115261105d565b500390565b6000600019820361116a5761116a61105d565b506001019056fea264697066735822122050d38b3daeb2afacf932f2e40e825a8238a3af0e51d4da96d31ce50debe2a9a664736f6c634300080d0033",
  "devdoc": {
    "kind": "dev",
    "methods": {
      "find_timestamp_user_epoch(address)": {
        "details": "Finds a epoch value for `user` by doing the initial binary search",
        "params": {
          "account": "- The address you're going to get the epoch value for"
        }
      },
      "owner()": {
        "details": "Returns the address of the current owner."
      },
      "renounceOwnership()": {
        "details": "Leaves the contract without owner. It will not be possible to call `onlyOwner` functions anymore. Can only be called by the current owner. NOTE: Renouncing ownership will leave the contract without an owner, thereby removing any functionality that is only available to the owner."
      },
      "transferOwnership(address)": {
        "details": "Transfers ownership of the contract to a new account (`newOwner`). Can only be called by the current owner."
      }
    },
    "stateVariables": {
      "feeDistributor": {
        "details": "The fee distributor contract"
      },
      "ve": {
        "details": "The voting escrow contract"
      }
    },
    "version": 1
  },
  "userdoc": {
    "kind": "user",
    "methods": {},
    "version": 1
  },
  "storageLayout": {
    "storage": [
      {
        "astId": 130,
        "contract": "contracts/FeeDistributorAgent.sol:FeeDistributorAgent",
        "label": "_initialized",
        "offset": 0,
        "slot": "0",
        "type": "t_uint8"
      },
      {
        "astId": 133,
        "contract": "contracts/FeeDistributorAgent.sol:FeeDistributorAgent",
        "label": "_initializing",
        "offset": 1,
        "slot": "0",
        "type": "t_bool"
      },
      {
        "astId": 549,
        "contract": "contracts/FeeDistributorAgent.sol:FeeDistributorAgent",
        "label": "__gap",
        "offset": 0,
        "slot": "1",
        "type": "t_array(t_uint256)50_storage"
      },
      {
        "astId": 10,
        "contract": "contracts/FeeDistributorAgent.sol:FeeDistributorAgent",
        "label": "_owner",
        "offset": 0,
        "slot": "51",
        "type": "t_address"
      },
      {
        "astId": 122,
        "contract": "contracts/FeeDistributorAgent.sol:FeeDistributorAgent",
        "label": "__gap",
        "offset": 0,
        "slot": "52",
        "type": "t_array(t_uint256)49_storage"
      },
      {
        "astId": 569,
        "contract": "contracts/FeeDistributorAgent.sol:FeeDistributorAgent",
        "label": "feeDistributor",
        "offset": 0,
        "slot": "101",
        "type": "t_contract(IFeeDistributor)1052"
      },
      {
        "astId": 573,
        "contract": "contracts/FeeDistributorAgent.sol:FeeDistributorAgent",
        "label": "ve",
        "offset": 0,
        "slot": "102",
        "type": "t_contract(IVotingEscrow)1097"
      }
    ],
    "types": {
      "t_address": {
        "encoding": "inplace",
        "label": "address",
        "numberOfBytes": "20"
      },
      "t_array(t_uint256)49_storage": {
        "base": "t_uint256",
        "encoding": "inplace",
        "label": "uint256[49]",
        "numberOfBytes": "1568"
      },
      "t_array(t_uint256)50_storage": {
        "base": "t_uint256",
        "encoding": "inplace",
        "label": "uint256[50]",
        "numberOfBytes": "1600"
      },
      "t_bool": {
        "encoding": "inplace",
        "label": "bool",
        "numberOfBytes": "1"
      },
      "t_contract(IFeeDistributor)1052": {
        "encoding": "inplace",
        "label": "contract IFeeDistributor",
        "numberOfBytes": "20"
      },
      "t_contract(IVotingEscrow)1097": {
        "encoding": "inplace",
        "label": "contract IVotingEscrow",
        "numberOfBytes": "20"
      },
      "t_uint256": {
        "encoding": "inplace",
        "label": "uint256",
        "numberOfBytes": "32"
      },
      "t_uint8": {
        "encoding": "inplace",
        "label": "uint8",
        "numberOfBytes": "1"
      }
    }
  }
}